:020000040800F2
:10000000B01D022025040008C16200087B5A0008C8
:10001000BD620008412500088F7300080000000041
:100020000000000000000000000000006503000860
:10003000072A000800000000C103000885640008CA
:100040003F0400083F0400083F0400083F04000884
:100050003F0400083F0400083F0400083F04000874
:100060003F0400083F0400083F0400083F04000864
:100070003F0400083F0400083F0400083F04000854
:100080003F0400083F040008012400083F04000862
:100090003F0400083F0400083F0400083F04000834
:1000A0003F0400083F0400083F0400083F04000824
:1000B0003F0400083F0400083F0400083F04000814
:1000C0003F0400083F0400083F0400083F04000804
:1000D0003F0400083F0400083F0400083F040008F4
:1000E0003F0400083F0400083F0400083F040008E4
:1000F0003F0400083F0400083F0400083F040008D4
:100100003F0400083F0400083F0400083F040008C3
:100110003F0400083F040008096E0008196E00083B
:100120000D2900083F0400083F0400083F040008B0
:100130003F0400083F0400083F0400083F04000893
:100140003F0400083F0400083F0400083F04000883
:100150003F0400083F0400083F0400083F04000873
:100160003F0400083F0400083F0400083F04000863
:100170003F0400083F0400083F040008000000009E
:100180003F0400083F0400083F0400083F04000843
:100190003F0400083F0400083F0400083F04000833
:1001A000815A00083F040008FD28000800F002F80A
:1001B00000F0C9F80AA090E8000C82448344AAF138
:1001C0000107DA4501D100F0BEF8AFF2090EBAE836
:1001D0000F0013F0010F18BFFB1A43F0010318477B
:1001E00058990A0098990A000A444FF0000C10F838
:1001F000013B13F0070408BF10F8014B1D1108BFA5
:1002000010F8015B641E05D010F8016B641E01F844
:10021000016BF9D113F0080F1EBF10F8014BAD1C94
:100220000C1B09D16D1E58BF01F801CBFAD505E0B2
:1002300014F8016B01F8016B6D1EF9D59142D6D30C
:1002400070470000103A24BF78C878C1FAD8520726
:1002500024BF30C830C144BF04680C607047000040
:100260000023002400250026103A28BF78C1FBD8BF
:10027000520728BF30C148BF0B6070476E2900F09D
:10028000E184702900F03986662916F048816529D5
:1002900016F04581672916F04281612916F04181E7
:1002A00003681B0A28BF41F08001692900F0A4817E
:1002B000642900F0A181752900F09E816F2900F06A
:1002C000C685782900F00586E92900F06185E429D2
:1002D00000F05E85F52900F05B85EF2900F0C3850D
:1002E000F82900F004860368DB0928BF41F080018B
:1002F000632900F0E284732900F0E784E32901F028
:100300007B82F32901F08082002070471FB516F030
:1003100001F99DE8030000F05DFE01F0FDFA040024
:100320000020002115F04EFE401C606000200021DE
:1003300015F032FEE06000F081FB1FBD10B500201B
:1003400000F0E6FD10BD01F0B9FA1146FFF7DEFF3F
:1003500014F0BAF901F0B0FB03B4FFF7EFFF03BCF0
:1003600000F07EFB2C4B19680868B0E8F04F80F372
:100370000988BFF36F8F4FF0000080F3118870473A
:100380000000000008480068006880F308884FF00B
:10039000000080F3148862B661B6BFF34F8FBFF3DD
:1003A0006F8F00DF00BF00BF08ED00E0DFF80C003A
:1003B000016841F470010160704700BF88ED00E002
:1003C000EFF30980BFF36F8F134B1A681EF0100F05
:1003D00008BF20ED108A20E9F04F106009B44FF0FB
:1003E000500080F31188BFF34F8FBFF36F8F15F06C
:1003F0000FF84FF0000080F3118809BC19680868F5
:10040000B0E8F04F1EF0100F08BFB0EC108A80F378
:100410000988BFF36F8F7047A4000020EFF30580B9
:10042000704700000948804709480047FEE7FEE79B
:10043000FEE7FEE7FEE7FEE7FEE7FEE7FEE7FEE794
:1004400004480549054A064B7047000071650008DD
:10045000AD010008B0ED0120B01D0220B0FD01206B
:10046000B0FD012053EA020C00F069802DE9F04B49
:100470004FF00006002B1FBFB3FA83F503FA05F413
:1004800024FA05F65E4012BF1643B2FA82F502FA6C
:1004900005F4C5F120051EBF22FA05FC44EA0C0450
:1004A000203556EA044C4FEA144418BF641C4FF040
:1004B00000084FF00009904271EB030C39D300297A
:1004C00019BFB1FA81F701FA07F6B0FA80F700FA1E
:1004D00007F6C7F120071EBF20FA07FC46EA0C0604
:1004E0002037B6FBF4FCA7EB0507103F07F01F0B06
:1004F000CBF120060CFA0BFB2CFA06F644BFB346F0
:100500000026202FA4BF5E464FF0000B5BEA060CCE
:1005100008BF4FF0010B19EB0B09ABFB027C48EB5A
:100520000608C01B06FB02CC0BFB03CC71EB0C01D5
:10053000C1E70B46024641464846BDE8F08B13B57D
:100540004FF000004FF00001AFF30080BDE81C4009
:10055000704700001CB50C46064B7B446946009072
:10056000204600F088FB04460020694600F096FB18
:1005700020461CBD3F0700000FB41CB5084B06AA5F
:100580007B4469460090059800F075FB0446002006
:10059000694600F083FB20461CBC5DF814FB00009C
:1005A0001907000070B50C460546012A05D02878C9
:1005B000800600D5EA69002302E0012305E05B1C08
:1005C000934202D2E05C0028F9D1A869E618C01A6B
:1005D000A861286A18442862284600F0A1FA04E0BD
:1005E000D5E9012114F8010B9047B442F8D328460D
:1005F00000F0ACFA70BD00002DE9F0410646002481
:1006000010687529314616A510D000F0B0FA002800
:1006100002DA404213A507E031688A0701D512A526
:1006200002E0490704D511A5012401E000F0A8FA71
:1006300000210A2206F1240709E0B0FBF2FCB0FB1E
:10064000F2F302FB1C00303078541846491C002895
:10065000F3D123462A463046BDE8F04100F099BA6E
:10066000000000002D0000002B0000002000000012
:100670002DE9F05F894604464FF0000ADFF874B1B7
:10068000FB44C0F820A02046E1688847002874D0C9
:10069000252806D0D4E901219047206A401C206219
:1006A000F1E700265F462046E16888472028054696
:1006B00007DB312D05D2781910F8200C08B106435C
:1006C000F1E7B00701D526F00406C4F81CA0002706
:1006D000C4F818A02A2D09D0284613F0C3FF38B358
:1006E00004EB8708303DC8F8185019E059F8041B8E
:1006F000204604EB87029161E1688847012F054697
:1007000018D1E069002820DA26F020061DE0D8F88C
:10071000180000EB800005EB40003038C8F81800E6
:100720002046E1688847054613F09CFF0028EED17B
:10073000012F0AD02E2D08D12046E16888477F1C62
:100740000546022F46F02006C4DBA069002803DA24
:10075000404246F00106A061F00701D026F01006E5
:100760006C2D0BD0682D09D04C2D39D06A2D35D089
:10077000742D35D07A2D33D016E038E0E1682F465D
:1007800020468847B842054609D16C2F26D04FF441
:100790008060E168064320468847054604E06C2FE8
:1007A0001AD04FF4807006430DB3A5F1410019280B
:1007B00002D8203546F400664A462946204626607F
:1007C0004E46FFF75BFD80B101280BD0F61D26F0E9
:1007D000070000F1080956E74020E4E78020D8E749
:1007E0000020D6E706F104094DE7284652E7206AC3
:1007F000BDE8F09FF068010010B5002000F0A9FBF3
:10080000FFF79CFDBDE81040012000F029B92DE95B
:10081000F041074615460E46102000F02BF9040063
:100820000AD06760C4E9026500F020F90168216020
:1008300004600020BDE8F0810120FBE70EB505460D
:1008400014460E4613A000F092FB284600F08FFBE2
:1008500016A000F08CFB304600F089FB15A000F0DC
:1008600086FB00218DF80B100A210DF10A008DF88E
:100870000A1008E094FBF1F201FB124294FBF1F440
:10088000303200F8012D002CF4DC00F070FBFFF793
:10089000B3FF00002A2A2A20617373657274696F9E
:1008A0006E206661696C65643A2000002C206669E0
:1008B0006C6520002C206C696E65200010B5431C0F
:1008C00002E010F8011B71B18107FAD14FF001323B
:1008D00002C88C1A8C4314EAC211F9D0C01A0A0655
:1008E00003D0C01E10BDC01A10BD0A0401D0801E66
:1008F00010BD0902FCD0401E10BD032A40F230801A
:1009000010F0030C00F0158011F8013BBCF1020F50
:10091000624498BF11F801CB00F8013B38BF11F8D1
:10092000013BA2F1040298BF00F801CB38BF00F8E8
:10093000013B11F0030300F02580083AC0F0088065
:1009400051F8043B083A51F804CBA0E80810F5E749
:10095000121D5CBF51F8043B40F8043BAFF300802C
:10096000D20724BF11F8013B11F801CB48BF11F8A1
:10097000012B24BF00F8013B00F801CB48BF00F871
:10098000012B704710B5203AC0F00B80B1E8185029
:10099000203AA0E81850B1E81850A0E81850BFF469
:1009A000F5AF5FEA027C24BFB1E81850A0E8185008
:1009B00044BF18C918C0BDE810405FEA827C24BF5C
:1009C00051F8043B40F8043B08BF7047D20728BFEA
:1009D00031F8023B48BF11F8012B28BF20F8023B39
:1009E00048BF00F8012B70474FF0000200B51346D6
:1009F00094469646203922BFA0E80C50A0E80C503F
:100A0000B1F12001BFF4F7AF090728BFA0E80C50EF
:100A100048BF0CC05DF804EB890028BF40F8042BE8
:100A200008BF704748BF20F8022B11F0804F18BF55
:100A300000F8012B704770477047704770B5064C3F
:100A40007C44064D7D4403E0206820448047241DFB
:100A5000AC42F9D170BD000070930A007C930A008B
:100A600001491820ABBEFEE726000200004870478F
:100A7000E8AA012070B5064600F090FA056806F174
:100A80000B0020F00704B4429CBF002070BD2B4631
:100A90006A68BAB11068A04210D304F10801884214
:100AA0003CBF5068586007D3516810194160116805
:100AB000091B016058601460101D70BD1346526818
:100AC000002AE7D12146284600F070FA0028DED13E
:100AD00070BD70B50446051F00F060FA0068002C78
:100AE00014BF446870BD002C18BFAC423CBF204608
:100AF0006468F8D301680A18AA4218BF456003D198
:100B00002A6805461144016028684119A1421CBFAA
:100B10006C6070BD6168696021680844286070BDC0
:100B200070B5044685690068C10601D5302600E02D
:100B30002026C00707D070BDD4E901213046904778
:100B4000206A401C20626D1EF6D570BD70B504464B
:100B500085690078C00707D170BDD4E90121202044
:100B60009047206A401C20626D1EF6D570BD096852
:100B70004A0501D540B27047C905FCD500B270479F
:100B800009684A0501D5C0B27047C905FCD580B2D5
:100B900070472DE9F0470D4699469246044600F10C
:100BA00024080168880604D5E06921F0100121605D
:100BB00000E00120A84201DD471B00E00027A169F9
:100BC0007A1902EB0900081AA0612078C00602D445
:100BD0002046FFF7A5FF002608E0D4E901211AF816
:100BE00006009047206A401C761C20624E45F4DBCC
:100BF0002078C0060AD52046FFF792FF06E0D4E928
:100C0000012130209047206A401C2062381EA7F145
:100C10000107F4DC07E0D4E9012118F8050090474A
:100C2000206A401C2062281EA5F10105F3DC204645
:100C3000FFF78CFF2078000602D50220BDE8F08780
:100C40000120FBE711680268006A530501D50870AE
:100C50000AE0D30501D5088006E0130603D5C217C4
:100C6000C1E9000200E008600120704701694A1CE8
:100C700002610878704700B58FB0CDE901310021DD
:100C8000059105497944CDE9031011466846FFF7FF
:100C9000EFFC0FB000BD0000E5FFFFFF0A6802F89F
:100CA000010B0A60704710B5436913B1AFF30080C0
:100CB00001E0FFF777FC012010BD127800F124015C
:100CC0000A7000224A700122EDE711684FF0FF32EE
:100CD000E9E700002DE9FF5F15468A460446DFF884
:100CE000AC80F8440027D8E900103E46CDE900105A
:100CF00010E03AF816106A4602A800F089FD411C7F
:100D000007D02178890603D5E269391891420DD8B8
:100D10000744761C2078800602D5E069B84205DDDC
:100D2000AE42E6DB3AF816000028E2D1A069C01B0B
:100D3000A0612046FFF7F4FED8E90010CDE90010CD
:100D4000002017E03AF818106A4602A800F060FD8B
:100D5000B0F1FF3F81460BD000250DF1080B05E0F7
:100D6000D4E901211BF8050090476D1C4D45F7D3D0
:100D700008F10100B0428046E4DB206A384420627A
:100D80002046FFF7E3FEBDE8FF9F0000A2620100DE
:100D90002DE9F0418046D21D22F007020025D2E95C
:100DA0000002F52915A614D0011E72F1000106DA21
:100DB0000023D0EB030063EB020211A608E0D8F891
:100DC00000108B0701D50FA602E0490701D50EA63A
:100DD00001251146002408F1240704E000F030F951
:100DE00030323A55641C50EA0102F7D12B463246A4
:100DF00021464046BDE8F041FFF7CBBE00000000B1
:100E00002D0000002B0000002000000030B4002165
:100E100000F1240408E002F00705D208303542EA68
:100E20004372DB086554491C52EA0305F3D1046898
:100E3000002310A2250707D5A40600D421B1C46958
:100E400001230DA2641EC46130BCFFF7A2BE10B521
:100E5000044621461068FFF793FE02462046BDE88F
:100E600010400023D2E7D21D22F00701D1E9002370
:100E7000CCE700000000000030000000F0B40D4698
:100E80000188090502D5214C7C4402E01F4C7C44BA
:100E90000E34002100F1240608E002F00F071209C9
:100EA000E75D42EA03721B097754491C52EA0307C3
:100EB000F3D102780023120704D5702D06D009B1B2
:100EC000022311342246F0BCFFF763BE0123103425
:100ED000F8E770B504460D4621461068FFF750FE4E
:100EE000024629462046BDE870400023C6E7D21DD1
:100EF00022F00703D3E90023C0E70368126843F038
:100F0000200303600823C3610023B7E704610100E5
:100F10002DE9F0410646FFF7A9FD8046454613E05E
:100F200016B1E068B0420ED120682860D4E9010112
:100F3000D8F8007088472046FFF7CBFDD8F80000AE
:100F4000B842EBD100E025462C68002CE8D1BDE882
:100F5000F08110B500F082FCBDE8104000F078BCD4
:100F600010B500F093FCBDE8104000F071BC10B566
:100F7000044602E0641C00F004F820780028F9D14F
:100F800010BD08B569468DF800000320ABBE08BD52
:100F900000487047B0AA0120704700000048704721
:100FA000B8AA0120704770477047704738B50446AB
:100FB0000A4600206946AFF30080002808BF38BD0C
:100FC00002460099204600F0ABFC012038BD01200C
:100FD00000F094BDF8B5AFF30080054600200C4644
:100FE000102000BF0646A819A0420DD93246694616
:100FF0000020AFF30080070008BF00F07FFD0098DD
:10100000A04218BF0546C419FFF7C8FF0560074690
:10101000F01D20F007004619284600F00AF8B442F7
:1010200008BFF8BDA21B31463868BDE8F84000F0A3
:1010300077BC00210160C0E90110704710207047A3
:1010400030B5B0F10A024FEA900E71F100034EEA9A
:10105000817EB0EB0E0061EB91014FEA101E4EEA6B
:10106000017E10EB0E0041EB11114FEA102E4EEAFB
:10107000016E10EB0E0041EB11214FEA104E4EEACB
:10108000014E10EB0E0041EB1141401841F10001FF
:101090004FEAD00040EA41704FEAD10110EB8005E1
:1010A0004FEA810444EA907444EB01046D1944EB67
:1010B0000404521BA3414FF0000348BF0A3200D57D
:1010C00030BD401C41F1000130BD70472DE9FF4F9C
:1010D0000C461E464FF0FF378BB0D2E90001DDF819
:1010E00060800A908A46C1F30A5505B93D46002141
:1010F00008464FF00000BAF1000F00F4400005DA96
:1011000000EB80004FF4400101EA50004FEA905993
:10111000B9F1010F00DDB9460A9850EA4A000ED035
:1011200044F61050A5F2FF3545432F14B8F1000FD7
:101130001ED07542291E1EDDC9F100021CE0B8F167
:10114000010F4FF0000001D0302103E0F24305E031
:101150002154401CB042FBDB3046002200212154C8
:101160000B99C1F80880C1E900200FB0BDE8F08FED
:10117000BD1B6D1CDEE74A4600DA694206A800F096
:1011800029FC06AB93E8070003AB83E80700504651
:101190000A9900F023FD8DE80700A0F500501F38E4
:1011A00000900398002D0ADD42F21F014A460844D0
:1011B000002303A90390684600F08CFF09E0A0F526
:1011C00000504A461F38002303A90390684600F0E8
:1011D00096FF8DE807000004000C03D04FF0FF30AD
:1011E000410800E01046B8F1000F03D00022009241
:1011F00015461EE0751E05D4FFF722FF30326255FA
:101200006D1EF9D5B3460122084302D000227F1C8F
:1012100004E02078302801D100227F1E002A09979F
:1012200084D01DE0112D07DAFFF70AFF3032625536
:101230006D1C50EA0102F5D1084302D00098C8B1F4
:101240000EE00021681E05E0235C625C63542254BA
:10125000401E491C8142F7DBAB46A81B401E09908B
:10126000002004F80B000B98099AC0F80880C0E928
:10127000002B7AE711264FF0000857E72DE9F04FD1
:1012800088460446D21D22F0070191B0D1E9000141
:10129000CDE90A0113F01DF902460B98C00F01D0E9
:1012A0002D2007E02068810701D52B2002E02021B6
:1012B00001EAC000032A099001D0072A05DB034692
:1012C0004146204600F046FB0BE12078800601D520
:1012D000E06900E00620B8F1650F814606D0B8F15C
:1012E000660F18D0B8F1670F70D131E00020B9F166
:1012F000110F009001DB112301E009F101030AAA9B
:1013000001A90CA8FFF7E2FEDDE90C70002609F147
:101310000105834647E001204B4600904FF000470F
:101320000AAA01A90CA8FFF7D1FEDDE90DB00C99BE
:101330005D46002610B909F101000D18B9EB050052
:1013400003D4C0F1FF3609F10105A5EB09002BE03C
:10135000B9F1010F01DA4FF001090020B9F1110FC5
:101360000090484601DD112300E003460AAA01A9C6
:101370000CA8FFF7ABFEDDE90C704D460026834656
:10138000207800070AD4AB4500DA5D4601A8012D9C
:1013900004DD411911F8011C302907D04F4502DA4C
:1013A00017F1040F04DA012082460FE06D1EEEE70C
:1013B000002F02DCED1B3E4403E0781CA84200DD58
:1013C0007D1CB81B00F1010A4FF000472078000790
:1013D00003D4AA4501DB4FF0FF3A0021B7F1004FDB
:1013E0000DF143088DF8431024D002202B23002F49
:1013F00001DA7F422D230A21021EA0F1010000DC48
:101400005FB197FBF1FC97FBF1F201FB1C7C1746E7
:101410000CF1300C08F801CDEEE7A8F101000370E3
:101420002188090501D5452100E06521A0F10108C9
:1014300000F8011C09980FA9A1EB0807FF1D00B1D6
:101440000120411901EBEA70A1693844081A401ED5
:10145000A0612078C00602D42046FFF761FB0998FE
:1014600028B1D4E901219047206A401C20622078ED
:10147000C00622D52046FFF753FB1EE0002E04DBFA
:10148000B34502DD01A8805D00E03020D4E90121F0
:101490009047206A401C2062761CAAF101005FEA96
:1014A000000A0AD100F038FAC0680168405CD4E94B
:1014B00001219047206A401C2062281EA5F10105E9
:1014C000DCDC07E0D4E9012118F8010B9047206A21
:1014D000401C2062381EA7F10107F3DC2046FFF70D
:1014E00035FB032011B041E62DE9F04F04460D46CF
:1014F000D21D22F0070089B0D0E90097484639464E
:1015000012F0E7FF0246F80F01D02D2307E0206814
:10151000810701D52B2302E0202101EAC0038DF8C9
:1015200020300BB1012000E00020032A824601D0C8
:10153000072A04DB2946204600F00CFA3FE1207818
:10154000800601D40D2500E0E569C7F30A560D2D8C
:1015500049DA00214FEA175B08464FF00000002FE0
:1015600000F4400007DA00EB80004FF4400100EB8C
:10157000D07001EA60008115012901DD4FF0FF31D3
:1015800000224FEA850CBCF1180F06D31346ACF1CC
:1015900018004FF08052C24003E04FF4801323FA4A
:1015A0000CF30CF10C0CBCF1200F04D3ACF1200CAB
:1015B00009FA0CF001E007FA0CF000294FF000489E
:1015C00001DD18B90FE00ED140450CD319EB02092B
:1015D0005F4121B9404502D19F4329EA0209BBEB93
:1015E000175F00D0761C2088000502D57B48784420
:1015F00002E07A487844193808AA302302F80A3001
:10160000037C0AF10101002E0AF1020A53546A46D2
:1016100002DC4FF0300101E04FF031014FF00108E2
:101620008DF8001002D0A6F2FF3603E059EA470118
:1016300000D06B4E002D02DC2178090704D54FF055
:1016400002082E218DF80110C44600210BE0C7F3DB
:1016500003433F01C35C491C6D1E02F80830052995
:1016600008F1010801DA002DF1DC00210CE000EBAB
:101670001973491C1B786D1E082902F808304FEABF
:10168000091908F1010801DA002DF0DC21688B0648
:1016900002D516E0A8F10108E04505DD02EB0803DC
:1016A00013F8013C302BF5D0B8F1000F09DD02EB47
:1016B000080313F8013C2E2B03D1090701D4A8F12C
:1016C0000108002D05DD3E2102F808106D1E08F10D
:1016D0000108407C002E02F8080008F1010804DA35
:1016E0002D20764202F8080002E02B2002F80800C4
:1016F0000A214FF47A70864208F101080BDB96FB51
:10170000F0F3303302F8083096FBF0F308F10108EB
:1017100000FB136601E0642E0CDB642096FBF0F303
:10172000303302F8083096FBF0F308F1010800FBB3
:10173000136601E00A2E06DB96FBF1F0303002F86A
:10174000080008F1010896FBF1F001FB1060303051
:1017500002F80800A16908F1010808EB050202EB94
:101760000A00081AA0612078C00602D42046FFF7BC
:10177000D7F9216A08AE01EB0A00206204E0D4E93F
:10178000012116F8010B9047BAF1010AF7D220782F
:10179000C00602D52046FFF7C3F96E4609E016F8E9
:1017A000010B3E280FD0D4E901219047206A401C4C
:1017B0002062B8F10108F2D22046FFF7C7F909B05C
:1017C0000320BDE8F08F206A2844206203E0D4E9BA
:1017D0000121302090476D1EEBD3F8E7D959010065
:1017E00002FCFFFF10B5436913B1AFF3008001E0C5
:1017F000FFF770FA012010BD128800F124018284E5
:101800000022C2840122EDE711684FF0FF32E9E7C0
:1018100070B516460C46054600F076F8036893F856
:101820000101012806D0FF2C0FD8185D68B10120F6
:101830002C7070BDD3F807013246214603F207131E
:1018400003442846BDE8704018474FF0FF3070BD94
:10185000002801D0FFF704B97047000010B500213F
:1018600002A000F032F9012010BD000053494741A9
:101870004252543A2041626E6F726D616C20746501
:10188000726D696E6174696F6E00000010B50021A1
:1018900002A000F01AF9012010BD00005349475082
:1018A00056464E3A2050757265207669727475619D
:1018B0006C20666E2063616C6C6564007546FFF792
:1018C00067FBAE4605006946534620F00700854693
:1018D00018B020B5FEF7B4FDBDE820404FF000067B
:1018E0004FF000074FF000084FF0000B21F0070108
:1018F000AC46ACE8C009ACE8C009ACE8C009ACE84B
:10190000C0098D467047000010B500F005F8001DB5
:1019100010BD00BFB146010000487047D0AA0120A9
:10192000034640688C46002818BF88423CBF0346E7
:101930004068F8D318681844884207D00CF10300B7
:1019400020F00700001D411A521A0146081D0A60C6
:10195000FFF7BFB82DE9F0411F4604460326016892
:10196000072A01F4006004DB08B116A505E016A5FE
:1019700003E008B115A500E015A521F010002060D6
:10198000A069C01EA0610FB1401EA0612046FFF7F4
:10199000C7F84FB1D4E9012138469047206A401C6E
:1019A0002062C01C206206E0206AFAE7D4E9012127
:1019B00015F8010B9047761EF8D22046FFF7C6F8BF
:1019C000BDE8F0814E414E006E616E00494E46000A
:1019D000696E66002DE9F047814616468AB03548A3
:1019E00078440DC88DE80D0032487844801C03AC63
:1019F0000DC884E80D0041F69B300844372190FB68
:101A0000F1F290FBF1F5A5F1800501FB12041B3CFE
:101A100002D56442012000E00020DFF898A0804653
:101A20000027FA44AAF1BE0A0EE0E0070AD03246C7
:101A3000684607EB470101230AEB810100F05FFBD9
:101A40008DE8070064107F1C002CEED1194F7F44F5
:101A5000AE3F19E0E80715D007EB04100DF1180AA6
:101A600090E80E008AE80E00C068F04201D1981993
:101A700008903246012306A903A800F040FB03ABFF
:101A800083E807006D10641C002DE3D14FF00103C3
:101A900032466946B8F1000F03A802D000F01AFBE5
:101AA00001E000F02CFBC9E90001C9F808200AB0E8
:101AB000BDE8F0877856010010B50446AFF300800A
:101AC0002046BDE81040FEF747BC70B505460C4601
:101AD0000A2000E06D1CFFF754FA35B12878002881
:101AE000F8D102E0641CFFF74CFA14B1207800280A
:101AF000F8D1BDE870400A20FFF743BA10B500F0F6
:101B000005F8BDE81040FFF7A3BE000010B501289E
:101B100005D0002103A0FFF7D8FF012010BD09A1C7
:101B2000F8E7000053494752544D454D3A204F7550
:101B300074206F662068656170206D656D6F7279C5
:101B4000000000003A2048656170206D656D6F727D
:101B50007920636F72727570746564004FF0013C98
:101B600050F8042B51F8043B9A4221D1A2EB0C030C
:101B7000934313EACC1317D150F8042B51F8043BCC
:101B80009A4215D1A2EB0C03934313EACC130BD169
:101B900050F8042B51F8043B9A4209D1A2EB0C03F4
:101BA000934313EACC13DBD04FF00000704700BF23
:101BB000D01A01BAB1FA81F101F0180122FA01F04C
:101BC000CB40C1F12001DBB2C0B2C01A2CFA01F344
:101BD000D11A914311EAC311E6D170475FEA400C74
:101BE00008BF91F0000F4FEA8C234FEAC12243EA6D
:101BF00051514FEA1C5018BF00F5F0404FEA300039
:101C000018BF41F000415FEA6C5C00F02980BCF134
:101C1000FF3F08BF40F080407047130C06BF12041E
:101C20004FF0100C4FF0000C130E04BF12020CF119
:101C3000080C130F04BF12010CF1040C930F04BF26
:101C400092000CF1020CD30F04BF52000CF1010CF6
:101C500011464FF00002A0F11F00A0EB0C007047EE
:101C600011F0004F08BF704731F000413FF4D5AF8D
:101C70000B0C06BF09044FF0100C4FF0000C0B0EBC
:101C800004BF09020CF1080C0B0F04BF09010CF191
:101C9000040C8B0F04BF89000CF1020CCB0F04BFA6
:101CA00049000CF1010CCCF12003A0EB0C0022FA4E
:101CB00003F302FA0CF241EA030100F1010070475C
:101CC00020F07F4C80EA030023F07F47ACEB070352
:101CD00003F57C5300F0004003F1FF032DE9804938
:101CE0004FEA154B09B44FEA144325EA0B4E24EA98
:101CF00003480FF2042606EB132749083E785FEAF3
:101D0000320203FB0667C7F5000707FB06F64FEA3A
:101D100054374FEAD64606F1020607FB066CCCF1B3
:101D2000005C4FEA1C472CEA074C07FB06F40CFB4F
:101D300006F504EB15464FEA961634BF00204FF027
:101D400000404FEAD13706FB07FC4FEA1C4C0CFB66
:101D50000BF7D21B03FB0CF761EB07010CFB0EF733
:101D6000B0EB074072EB17420CFB08F734BFA2EB55
:101D70000742B2EB074261EB17414FEA0C444FEACE
:101D8000910706FB07FC4FEA1C4C0CFB0BF7B0EB72
:101D9000C74072EB573203FB0CF734BFA2EBC742CC
:101DA000B2EBC74261EB57310CFB0EF7B0EBC7004B
:101DB00072EB57720CFB08F734BFA2EBC702B2EB11
:101DC000C70261EB5771039F4FEA816141EA9211AB
:101DD00004EBCC044FEAD1374FEA826206FB07FCE2
:101DE00042EA90124FEA80604FEA1C4C0CFB0BF762
:101DF000D21B03FB0CF761EB07010CFB0EF7B0EBFA
:101E0000074072EB17420CFB08F734BFA2EB074206
:101E1000B2EB074261EB17414FEA8C554FEA91074D
:101E200004EB9C2406FB07FC4FEA1C4C0CFB0BF755
:101E3000B0EBC74072EB573203FB0CF734BFA2EB99
:101E4000C742B2EBC74261EB57310CFB0EF7B0EB68
:101E5000C70072EB57720CFB08F734BFA2EBC70246
:101E6000B2EBC70261EB577115EB4C254FEA81616C
:101E700041EA92114FEA82624FEAD13742EA901268
:101E800006FB07FC44F100044FEA80604FEA1C4C5B
:101E90000CFB0BF7D21B03FB0CF761EB07010CFBF0
:101EA0000EF7B0EB074072EB17420CFB08F734BF9C
:101EB000A2EB0742B2EB074261EB174115EB1C1591
:101EC0004FEA813141EA92414FEA823242EA90423E
:101ED0004FEA80304FEA0C7644F1000448EA0343AD
:101EE0004EEA0B484FF0000EB2EB080C71EB030703
:101EF00024BF624639464EEB0E0E4FF0000B001821
:101F0000524149414BEB0B0BB2EB080C71EB030751
:101F10007BF1000B24BF624639464EEB0E0E4FF0AC
:101F2000000B0018524149414BEB0B0BB2EB080C74
:101F300071EB03077BF1000B24BF624639464EEB81
:101F40000E0E51EA020718BF46F0010616EB0E7698
:101F500055F1000254F1000103D5BDE88901BDE847
:101F60000088BDE88901BDE80048B619524141EB3F
:101F70000101A3F10103704780807F7E7D7C7B7A25
:101F80007978777676757473727171706F6E6E6D25
:101F90006C6C6B6A6A6968686766666564646363CB
:101FA00062616160605F5F5E5E5D5D5C5C5B5B5A51
:101FB0005A595958585757565655555554545353BE
:101FC00052525251515050504F4F4F4E4E4D4D4D19
:101FD0004C4C4C4B4B4B4A4A4A4949494848484764
:101FE00047474746464645454544444444434343A2
:101FF0004342424242414141002B9C4630D477004B
:102000002BD01CB54FEA370703B44FF010004FF048
:102010001001BAF1000F06D0BCF1000FDCBF40F098
:10202000080040F008014FF000000FBCBDE8104070
:102030000BF1010BBBF1010F08BF5FEA170722BFCD
:1020400012F1010211F101014FF0004143F10003CF
:1020500000F0004043EA00007047F9D35708D0E78A
:1020600046EA064613F1400F4FEA16461FDD13F10C
:10207000200FDFBF16430A46002120335B42BED04B
:10208000C3F1200746EA064602FA07F74FEA16466A
:1020900046EA0706C3F1200722FA03F201FA07F71E
:1020A00021FA03F14FF0000342EA0702A7E746EAEC
:1020B000020646EA06464FEA164646EA0106BCBF55
:1020C00046EA0646360C4FF000034FF000024FF090
:1020D000000194E72DE9804C9A46934670B491E84C
:1020E000380007C831EA400C48BF34EA430C03D536
:1020F000FFF7E6FDFFF780FFF0BCBDE8008C2DE99F
:10210000804C9A46934670B491E8380007C810F0A6
:10211000804F08BF13F0804F03D100F005F8FFF7A0
:102120006BFFF0BCBDE8008C20F07F4780EA030025
:1021300023F07F4C07EB0C03A3F57C5300F0004029
:10214000A3F1FE0392F0000F00F0B38095F0000FB2
:1021500000F077802DE901494FEA11404FEA14461B
:1021600021EA004800FB06FC24EA064708FB06F6C5
:1021700007FB08F800FB07F718EB06484CEB164C7A
:102180004FEA124B18EB07484FEA15464CEB174045
:1021900022EA0B4E0BFB06FC25EA06470EFB06F671
:1021A00007FB0EFE0BFB07F71EEB064E4CEB164C27
:1021B0004FF000061EEB074E4CEB174B18EB0B08CD
:1021C00040F1000018EB0E0B58EB000840F1000046
:1021D0008F1A4FF000013CBFC943661B14BFB5EB1B
:1021E000040C00213CBFC943F61B4FEA17444EEADA
:1021F0008E0E27EA04454FEA1C4704FB07622CEACF
:10220000074C05FB07F70CFB05F604FB0CFC16EB73
:10221000074642EB174216EB0C4642EB1C421BEB07
:10222000060658EB0202414146EA9E0601D5BDE88A
:102230000189B619524141EB0101A3F10103BDE847
:1022400001894FEA14454FEA114724EA054621EA7D
:10225000074C05FB07F406FB07F70CFB06F105FB33
:102260000CFC11EB074144EB17444FEA124711EB0A
:102270000C4144EB1C4422EA074C05FB07F206FB29
:1022800007F70CFB06F605FB0CFC16EB074642EBCA
:10229000174216EB0C4642EB1C456A1854F100013C
:1022A00048BF7047B619524141EB0101A3F1010348
:1022B000704795F0000F37D04FEA11424FEA1447AC
:1022C00021EA024624EA074C02FB07F106FB07F766
:1022D0000CFB06F402FB0CFC14EB074441EB17412A
:1022E0004FEA154714EB0C4441EB1C4125EA074C1F
:1022F00002FB07F506FB07F70CFB06F602FB0CFCDE
:1023000016EB074645EB174516EB0C4645EB1C4212
:10231000121951F1000148BF7047B619524141EB03
:102320000101A3F1010370474FEA14454FEA114739
:1023300024EA054621EA074C05FB07F106FB07F7EF
:102340000CFB06F24FF0000605FB0CFC12EB0742FB
:1023500041EB174112EB0C4251EB1C4148BF704757
:10236000921841EB0101A3F10103704710B5024639
:10237000906B016C11F0500F06D0016C11F0100F32
:1023800028D000F089FE10BD016C41F40071016499
:1023900001688A6812F0405F19D1027EBAB9CA6A30
:1023A00012F4700F03D08A6812F4806F0FD14A685C
:1023B00022F020024A60016C21F480710164016CFA
:1023C00011F4805F03D1016C41F00101016400F060
:1023D00039FE10BD806BC16CBDE810401046084747
:1023E00010B5806B40210164416C41F004014164EF
:1023F00000F052FE10BD10B5806B00F03BFE10BD2A
:1024000010B5024800F049FE10BD00000025002074
:102410004A494A6822F440324A604A6843681A438B
:102420004A6001684A6822F480724A6001684A681A
:10243000036942EA03224A6001684A6822F0407256
:102440004A6001684A6883681A434A6001688A687A
:1024500022F400628A6001688A68C3681A438A604D
:10246000816A6FF07062D14214D001688A6822F0EC
:1024700070628A6001688A68836A1A438A600168A8
:102480008A6822F040528A6001688A68C36A1A43E7
:102490008A6009E001688A6822F070628A600168D7
:1024A0008A6822F040528A6001688A6822F002023B
:1024B0008A6001688A68037E42EA43028A6090F873
:1024C000201089B101684A6842F400624A600168DC
:1024D0004A6822F460424A6001684A68436A5B1EA7
:1024E00042EA43324A6004E001684A6822F400622A
:1024F0004A600168CA6A22F47002CA620168CA6A44
:10250000838B5B1E42EA0352CA6201688A6822F426
:1025100000728A6001688A6890F8303042EA43228B
:102520008A6001688A6822F480628A6001688A6829
:10253000406942EA80208860704700000023014023
:1025400000BFFEE7254A10B4136823F001031360AF
:10255000234A1368C3F30B1C0123ACF54064243CED
:1025600007D01268C2F30B12A2F5406CBCF1270C25
:102570002AD11C4A12683ABB1B4AD2F800C0CCF3DD
:102580000B0CBCF58A6F0FD0D2F800C0CCF30B0C4B
:10259000ACF58064833C07D01268C2F30B02A2F54D
:1025A000806CBCF1850C0FD1104A13601368002BAE
:1025B000FCD10F4A10601068884202D010BC002085
:1025C000704710BC012070470A4A93609368002B43
:1025D000FCD1106010688842F3D0EFE7002000E0E3
:1025E00000ED00E0002004E00010005C084C025800
:1025F000004C02580030024010B5022012F042F8A0
:1026000010BD000010B500200E4908600E4800689B
:1026100020F0C0000C4908600846006840F0400007
:10262000086000200949C1F88C02FFF7E5FF01208E
:1026300004490860FFF7E0FF00200549C1F898024F
:1026400010BD000098824342002002400000444236
:102650000080434200B587B000BF002001901B48B6
:10266000006840F08000194908600846006800F0E2
:102670008000019000BF00BF00BF0020019008460D
:10268000006840F4807008600846006800F48070BC
:10269000019000BF00BF4020029011200390012054
:1026A00004900320059002A9094801F053FB08207B
:1026B000029002A9074801F04DFB0120064908607D
:1026C0000649C1F8980207B000BD0000303802404A
:1026D000001C0240002002408C0244420080434221
:1026E00010B500200E4908600E48006820F0C000B8
:1026F0000C4908600846006840F04000086001206E
:102700000949C1F88C02FFF777FF012004490860EE
:10271000FFF772FF00200549C1F8980210BD0000C4
:10272000988243420020024000004442008043421D
:1027300070B5054600241648006820F0C000144912
:102740000860084600680860012011F09BFF002621
:1027500013E000200F490860FFF74EFF01200E49EB
:10276000C1F898026006040E0C48006808B1601CAD
:10277000C4B2FFF741FF701CC6B2082EE9DB15B9E1
:10278000FFF7AEFF01E0FFF73DFF204670BD000000
:102790000020024098824342008043420C0244429F
:1027A00070B504461448006820F0C0001249086063
:1027B0000846006840F04000086000200F490860AB
:1027C000FFF71AFF002513E0E0090D4908606006D5
:1027D000040EFFF711FF01200A49C1F89802FFF724
:1027E0000BFF002005490860FFF706FF681CC5B213
:1027F000082DE9DB70BD00000020024098824342B2
:102800008C0244420080434210B50E48006820F01C
:10281000C0000C4908600846006840F040000860AD
:102820000120094908600949C1F8980211F02AFFFE
:10283000002005490860FFF7DFFE00200349C1F8CA
:10284000980210BD002002408C02444200804342A6
:1028500010B50F48006820F0C0000D490860084618
:10286000006840F04000086000200A4908600A49FA
:10287000C1F88C02012011F005FF01200549086014
:10288000FFF7BAFE01200449C1F88C0210BD000018
:1028900000200240988243420000444210B50024C8
:1028A0001248006820F0C00010490860084600681F
:1028B000086001200E4908600E49C1F89802FFF730
:1028C0009BFE09E0601CC4B2FA2C03DDFFF7C0FFD9
:1028D000012010BDFFF790FE0548803800680028F1
:1028E000F0D10549086000BFF3E700000020024076
:1028F0008C024442008043429882434210B5024811
:1029000000F01EFF10BD0000BC25002010B50248DD
:1029100001F004F810BD00004825002001680A4BB2
:10292000CAB2103AA3FB02321209084B9B5CC36582
:10293000032A04D96FF30901091D816502E06FF3D1
:1029400009018165806D7047ABAAAAAA146F0108BE
:10295000014600208A6A8B69002B0FD0B3F5005F17
:102960001DD08AB3012A30D0022A2ED0032A04D1E6
:10297000C96A11F0807F00D0012070471AB1012A86
:1029800007D0022AF9D1C96A11F0807FF5D0012061
:102990007047C96AB1F1C07FFAD1012070475AB1BE
:1029A000012A0BD0022A07D0032AF7D1C96AB1F154
:1029B000C07FF3D10120704701207047C96A11F030
:1029C000807FFAD001207047FFE70120704710B4E4
:1029D000D0F800C0DCF8004024F48024CCF800409B
:1029E000D0F800C0CCF804308368402B05D00368D1
:1029F00099600068C26010BC704703689A60006804
:102A0000C16010BC7047704772B600BFFEE700227D
:102A1000AFF3008010B4844601200E4B5C7A002C8A
:102A200016D1587A1C54587A03EB8000C0F804C0C1
:102A3000587A03F1080C00F80C20587A421C5A729C
:102A4000303008703A2048702F208870CC700020F9
:102A500010BC7047981D001010B48B684A68D1F8FC
:102A600010C01A43CB680C6843EA0C031A434B6945
:102A7000D1F820C01A438B691A43CB69496A012CEB
:102A800009D004686FF30E041A4342EA0C021143A2
:102A9000214301600CE0046824F4F84443EA0C0389
:102AA00021430B4341686FF30E0111430360416002
:102AB00010BC00207047426942EA41014161002098
:102AC0007047F8B5054614464A68086810438A6896
:102AD000C968521E520142EA412108430090009801
:102AE000286101F065FA0646A86910F0200F0ED0A3
:102AF000B4F1FF3F07D024B101F05AFA801BA04285
:102B000001D90320F8BDA86910F0200FF0D10020F2
:102B1000F8BD30B40B68D1F804C05B1EACF1010CF9
:102B200043EA0C13D1F808C00C69ACF1010C43EA7C
:102B30000C23D1F80CC04D698969641E6D1E491EB5
:102B4000ACF1010C012A0DD0826802F0704243EA18
:102B50000C3343EA044343EA055343EA016111435A
:102B6000816016E0826822F4704222F470024FEA1B
:102B70000C3C4CEA055C4CEA0202D0F80CC00CF0AC
:102B8000704C43EA044343EA016141EA0C0182606C
:102B9000C16030BC0020704700B587B000BF002086
:102BA00000903E48006840F080003C4908600846BC
:102BB000006800F08000009000BF00BF00BF002050
:102BC00000900846006840F480700860084600687D
:102BD00000F48070009000BF00BF802001900020B2
:102BE0000290012003900320049001A92C4801F0D9
:102BF000B1F84FF4807001900120029001A929489A
:102C000001F0A8F8FFF726FD012027490860782089
:102C100011F02FFD00202549C1F8A002142011F069
:102C200028FD012020490860642011F022FD0020C9
:102C30008DF81800012206A900F066F8012206A905
:102C4000A42000F061F816208DF81800012206A9D2
:102C5000802000F059F80C208DF81800012206A9F8
:102C6000882000F051F8022206A9A12000F020F8E7
:102C70009DF81800302803D19DF81900032807D0CB
:102C80009DF81900012803D09DF81900022802D1EF
:102C9000002007B000BD0120FBE7000030380240F3
:102CA000001C024000200240A002444200004442B6
:102CB0002DE9F04106460F461546FFF7A5FD7020A9
:102CC000FFF76EFDFFF7EAFDF0B2FFF769FDFFF7D2
:102CD000E5FDFFF799FD7120FFF762FDFFF7DEFDCF
:102CE00000240BE0691EA14201D0012100E0002177
:102CF0000846FFF71DFD3855601CC4B2AC42F1DB3D
:102D0000FFF7A6FDBDE8F0812DE9F04105460E462E
:102D100017464FF00008FFF777FD7020FFF740FDE2
:102D2000FFF7BCFDE8B2FFF73BFDFFF7B7FD00245E
:102D30000BE0305DFFF734FDFFF7B0FD8046B8F1E2
:102D4000000F00D003E0601CC4B2BC42F1DB00BF46
:102D5000FFF77EFD4046BDE8F08130B5CC1000F1B4
:102D6000200353F824304C07E50E0F24AC40A34356
:102D7000CD1000F1200444F82530CC1000F12003E0
:102D800053F824304C07E40E02FA04F42343CD1028
:102D900000F1200444F8253030BD2DE9F0470C4601
:102DA000DDE90867002100258C4600BF60E04FF098
:102DB000010808FA01F504EA050CAC4557D1D0F832
:102DC00000804FEA410A4FF0030909FA0AF928EA9C
:102DD0000908C0F80080D0F800804FEA410902FAE3
:102DE00009F948EA0908C0F80080012A01D0022A3E
:102DF00027D1D0F808804FEA410A4FF0030909FAB9
:102E00000AF928EA0908C0F80880D0F808804FEAD3
:102E1000410906FA09F948EA0908C0F80880D0F81B
:102E200004904FF0010808FA01F829EA0809C0F8EF
:102E30000490D0F8048003FA01F948EA0908C0F8C0
:102E40000480D0F80C804FEA410A4FF0030909FAD8
:102E50000AF928EA0908C0F80C80D0F80C804FEA7B
:102E6000410907FA09F948EA0908C0F80C80491C29
:102E700010299CD3BDE8F08730B587B001A902A81E
:102E800001F02CFE01F04EFE0546059800B16D00E4
:102E900007484068401C0649C968491C00FB01F40A
:102EA00014B9002007B030BDB5FBF4F0FAE700001C
:102EB000A02701207047000038B44FF0000CCDF877
:102EC00000C090F83C20012A1BD0012280F83C2051
:102ED0000A680724092A17D90368DD680A3A02EB51
:102EE000420204FA02F225EA0202DA600A788B68EA
:102EF0000A3A02EB420293400268D4682343D3604B
:102F000014E038BC0220704703681D6902EB4202DE
:102F100004FA02F225EA02021A610A788B6802EBCF
:102F20004202934002681469234313614A681F24D4
:102F3000072A15D203685D6B521E02EB820204FA67
:102F400002F225EA02025A630A8893B20A79521EF3
:102F500002EB820293400268546B234353632CE0DC
:102F60000D2A15D203681D6BD21F02EB820204FAF0
:102F700002F225EA02021A630A8893B20A79D21F82
:102F800002EB820293400268146B2343136314E044
:102F90000368DD6A0D3A02EB820204FA02F225EAC6
:102FA0000202DA620A8893B20A790D3A02EB8202CF
:102FB00093400268D46A2343D3621D4A1D4B0468C0
:102FC0009C420AD10C68122C07D1546824F40004E6
:102FD0005460546844F48004546004689C4221D1D5
:102FE000154C0B68A34201D0112B1BD1536823F45D
:102FF00080035360536843F4000353600968A1429F
:1030000010D10E490E4A0968B1FBF2F101EB8101C2
:1030100049000091009929B10099491E0091009939
:103020000029F9D180F83CC038BC0020704700006E
:10303000002301400020014012000010A0000020E9
:1030400040420F0010B5044607492068884200D06E
:1030500010BD4FF40061054803F018FC04480068F7
:1030600011F0CAFB00BFF3E7002001405C12002012
:103070000800001010B5044605492068884200D0B9
:1030800010BD4FF40061034803F000FC00BFF7E7F8
:10309000002001405C020020704770B504462068A3
:1030A0000168C1F340014268C2F3401200292DD0EB
:1030B00062B3216C11F0100F03D1216C41F4007147
:1030C0002164816811F0405F19D1217EB9B9C16ACC
:1030D00011F4700F03D0816811F4806F0FD1416833
:1030E00021F020014160206C20F480702064206C6D
:1030F00010F4805F03D1206C40F001002064204672
:10310000FFF7A0FF21686FF01200086020680168D7
:10311000C1F380014268C2F3C012A9B3A2B3216C0B
:1031200011F0100F03D1216C41F40051216481682A
:1031300011F4401F21D1816B11F4401F03D081682D
:1031400011F4806F19D1416811F4806F15D1816835
:1031500011F0405F11D1217E79B9416821F08001E1
:103160004160206C20F480502064206C10F4807F3B
:1031700003D1206C40F0010020642046FFF79AFE46
:1031800021686FF00C0008602068016801F00101FF
:103190004268C2F3801279B172B1006810F0010F79
:1031A0000AD0206C40F480302064204600F047F8BC
:1031B00021686FF00100086020680168C1F34011C8
:1031C0004268C2F3806200290DD0002A0BD0616CE6
:1031D00041F0020161646FF0200505602046FFF7B1
:1031E0005BFF2068056070BD70B504460025002CAB
:1031F00003D0206C002610B107E0012070BD2046EE
:1032000000F01EF8666484F83C60206C10F0100F2B
:1032100004D0012584F83C60284670BD206C20F461
:10322000885040F0020020642046FFF7F1F8666401
:10323000206C20F0020040F001002064EAE77047B3
:1032400010B586B00446142101A8FDF7CDFB2D4929
:103250002068884253D100BF002000902A480068AF
:1032600040F48070284908600846006800F48070C7
:10327000009000BF00BF00BF00200090224814381B
:10328000006840F0010020491439086008460068D1
:1032900000F00100009000BF00BF0120019003205A
:1032A00002900020039001A9184800F053FD18482F
:1032B0001849086000204860002116488160C160FC
:1032C0004FF48061016149004161890081614911C8
:1032D000C161490201620021416200F015FC08B1A0
:1032E000FFF792FB00BF0B48A063846300BF00227E
:1032F0000521122001F05AF9122001F049F906B017
:1033000010BD00000020014044380240000002408F
:10331000106402404825002038B50446002300937D
:1033200094F83C00012809D0012084F83C00206872
:10333000D0F808C01CF0010F02D018E0022038BD00
:10334000D0F808C04CF0010CC0F808C04F48DFF8B6
:1033500040C10068B0FBFCF000EB4000009000981A
:1033600028B10098401E009000980028F9D12068EC
:10337000D0F808C01CF4807F05D0D0F808C02CF429
:10338000807CC0F808C02068D0F808C01CF0010F8D
:1033900072D0D4F840C02CF0010C2CF4C06C4CF46A
:1033A000807CC4F840C0406810F4806F05D0206C69
:1033B00020F4005040F480502064206C10F4805FB2
:1033C00004D0606C20F00600606400E0636484F860
:1033D0003C30304DA36B3048D863A36B2F48186442
:1033E000A36B2F48D86423686FF022001860206810
:1033F000436843F0806343602068836843F48073CC
:1034000083602068134600F14C0C0A466146A06BAD
:1034100000F0F0FB6868234910F01F0F07D0206808
:10342000884231D1816811F0405F1FD02CE02068C4
:10343000884212D01C4A904204D1D1F8042312F0E1
:103440001F0F0AD0A0F18042B2F591321CD1D1F801
:10345000041301F01F01102916D2816811F0405F9A
:1034600012D1816841F0804181600DE0816841F0B6
:103470008041816008E0FFE7206C40F0100020648C
:10348000606C40F001006064002038BDA0000020A6
:1034900040420F00002301406D230008F72300087D
:1034A000E1230008002001400021014010B504463E
:1034B000002C02D0607910B106E0012010BD002080
:1034C0002071204600F004F801206071002010BD3A
:1034D00008B50A4A016891420FD100BF002100914E
:1034E0000749096841F48051054A1160114609688D
:1034F00001F48051009100BF00BF08BD00300240C0
:1035000030380240704730B44379012B23D0012476
:103510004471022303710368D3F800C002F0100263
:1035200040F6FE7595402CEA050C0D684968294364
:10353000914041EA0C01196001680B684FF0C00C22
:103540000CFA02F223EA02020A60047100214171BE
:1035500030BC0020704730BC02207047704770B507
:103560000446206801684FF0040511F4005F12D092
:10357000416B11F4005F0ED02571216941F001010A
:103580002161E90241632068016821F480510160F2
:103590002046FFF7E3FF2068016811F0005F15D0B7
:1035A000416B11F0005F11D02571216941F00201DA
:1035B00021614FF0005141632068016821F0805182
:1035C00001602046BDE87040FFF79CBF70BD70B53C
:1035D0000446002C03D02079002510B105E001201D
:1035E00070BD6571204600F007F80220207125614A
:1035F00001202071002070BD10B586B00446142152
:1036000001A8FDF7F1F91D492068884233D100BFB8
:10361000002000901A48006840F0005018490860E7
:103620000846006800F00050009000BF00BF00BFD7
:103630000020009012481038006840F00100104946
:10364000103908600846006800F00100009000BFD3
:1036500000BF30200190032002900020039001A9B8
:10366000084800F077FB00220521362000F09EFF7D
:10367000362000F08DFF06B010BD00000074004041
:1036800040380240000002407047000030B44268F9
:1036900090F83820012A27D0012580F838500222DE
:1036A00080F8392000EB01121832B2F808C05368D4
:1036B00043EA0C44DFF884C00A2B18D0092B16D03B
:1036C000137B44EA0363B9B10168CC6924EA0C0CAA
:1036D0004CEA0303CB6103681168196151680A2938
:1036E0001FD009291DD021E030BC02207047D368CB
:1036F00003F07F432343E6E701684C6A24EA0C0C9D
:103700004CEA03034B6203681168996151680A2906
:1037100001D009290AD1D168026821F07F41916264
:1037200004E0D168026821F07F41116280F83950CD
:10373000002180F8381030BC002070470F0003FFD4
:103740002DE9F047044620684568066815F0010F2A
:103750004FF004094FF000074FF0010815D016F4A0
:10376000807F12D0016821F480710160E06B40F02D
:103770000100E0632068C0F8088084F8399084F87C
:103780003870616909B12046884715F0200F16D0BE
:1037900016F4005F13D02068016821F40051016025
:1037A000216820208860E06B40F00200E06384F82C
:1037B000399084F83870616909B12046884715F05E
:1037C000080F16D016F4006F13D02068016821F49A
:1037D00000610160216808208860E06B40F004000F
:1037E000E06384F8399084F83870616909B1204643
:1037F000884715F0040F0DD016F4806F0AD02068AA
:10380000016821F4806101602068C0F808902046BA
:1038100000F05FF815F0020F14D016F4007F11D0FD
:103820002068016821F4007101602168022088602D
:10383000E06BE06384F8398084F83870216909B15D
:103840002046884715F0100F13D016F4805F10D073
:103850002068016821F4805101602168102088608F
:10386000E06BE06384F8398084F838702046FFF715
:103870000BFFBDE8F08770B50446002C04D094F827
:103880003900002510B106E0012070BD84F83850E1
:10389000204600F01FF8022084F8390020680168F3
:1038A000626821F44031114301602068416BA268D5
:1038B00021F00701114341632068016CE2686FF356
:1038C0000D0111430164E563012084F839000020F3
:1038D00070BD704738B504460E492068884217D13C
:1038E00000BF002000900C48006840F400000A4926
:1038F00008600846006800F40000009000BF00BFA8
:10390000002205215A2000F051FE5A2000F040FE0E
:1039100038BD000000B00240303802402DE9F843C5
:1039200004464FF00008CDF8008076484FF4165159
:103930000068B0FBF1F7A56D2E6894F85C000821D3
:1039400001FA00F0304211D02068026812F0040F32
:103950000CD0026822F00402026094F85C0001FAC4
:1039600000F0A860606D40F00100606594F85C00B4
:103970004FF0010909FA00F0304209D02168496985
:1039800011F0800F04D0A860606D40F00200606507
:1039900094F85C1004208840304209D021680968FE
:1039A00011F0020F04D0A860606D40F00400606563
:1039B00094F85C1010208840304224D021680968B7
:1039C00011F0080F1FD0A8602068016811F4802F43
:1039D0000DD0006810F4002F04D0A16C99B12046DE
:1039E000884710E0216C71B1204688470BE00168E0
:1039F00011F4807F03D1016821F008010160216C7E
:103A000009B12046884794F85C1020208840304255
:103A100051D02168096811F0100F4CD0A86094F8BB
:103A2000350005280DD02068016811F4802F32D0B0
:103A3000006810F4002F29D0E16B59B32046884765
:103A400039E02068016821F01601016020684169B1
:103A500021F080014161206C08B9A06C20B1206880
:103A6000016821F00801016094F85C003F2101FA2F
:103A700000F0A86084F8359084F83480216D002926
:103A80003ED001B02046BDE8F0430847616C09B163
:103A9000204688470FE0016811F4807F07D1016854
:103AA00021F01001016084F8359084F83480E16BD6
:103AB00009B120468847606D002821D0606D10F064
:103AC000010F15D0052084F835002068016821F029
:103AD000010101600098401C0090B84204D82068A1
:103AE000006810F0010FF5D184F8359084F8348027
:103AF000E16C002904D001B02046BDE8F04308473E
:103B0000BDE8F883A00000202DE9F041044600F054
:103B10004FFA0546DCB1022084F83500002684F80F
:103B200034602068016821F00101016020680068AC
:103B300010F0010F13D000F03BFA401B052809D903
:103B400020206065032084F83500BDE8F081012065
:103B5000BDE8F0812068006810F0010FEBD121680A
:103B60000868234A1040A3686268D4F810C01A435A
:103B7000E36843EA0C031A4363691A43A3691A43CF
:103B8000E3691A43236A1A431043626A042A03D181
:103B9000236BE26A1A43104308602068406920F0F2
:103BA0000701606A40EA0105012704280ED1A06AD6
:103BB0000543E06A50B12046FEF7CAFE30B140200E
:103BC000606584F835700120BDE8F08120684561AA
:103BD0002046FEF7A3FE94F85C103F2202FA01F1A2
:103BE0008160666584F835700020BDE8F0810000D2
:103BF0003F8010F070B504460025A66D94F834009F
:103C000001280DD0012084F8340094F835C000203C
:103C1000BCF1010F06D084F834000225284670BD9F
:103C2000022070BD4FF0020C84F835C0606520465C
:103C3000FEF7CDFE94F85C003F2101FA00F0B06081
:103C40002068016841F016010160206C20B12068F5
:103C5000016841F0080101602068016841F001013C
:103C60000160DBE700B587B0142102A8FCF7BCFEB9
:103C70003148006808B107B000BD01202E49086036
:103C800000BF002001902D48006840F001002B4942
:103C900008600846006800F00100019000BF00BF06
:103CA0004FF63F0002900220039000200490032072
:103CB00005900C20069002A9214800F04BF80D2039
:103CC00002900220039000200490032005900C2015
:103CD000069002A91B4800F03DF848F23710029008
:103CE0000220039000200490032005900C200690F1
:103CF00002A9154800F02EF84FF6837002900220BA
:103D0000039000200490032005900C20069002A947
:103D10000E4800F01FF84CF203700290022003904E
:103D200000200490032005900C20069002A908486A
:103D300000F010F800BF9EE70C0000103838024079
:103D40000014024000080240001802400010024027
:103D5000000C02402DE9F84F0022DFF82C92DFF82A
:103D60002CE2DFF82CA24FF0010B03274FF00F08D5
:103D70000BFA02FC0B6803EA0C0363457AD10C7959
:103D800004F00304012C01D0022C14D185685400E6
:103D900007FA04F6B543CE6806FA04F42C438460AF
:103DA000446824EA0C0C0C79C4F30014944044EAEF
:103DB0000C0CC0F804C0D1F804C037EA0C0C0CD0CD
:103DC000C4684FEA420C07FA0CF5AC438D6805FA5B
:103DD0000CFC4CEA040CC0F80CC091F804C00CF0C8
:103DE000030CBCF1020F12D14FEAD20C00EB8C0491
:103DF000256A4FEA427C4FEADC6C08FA0CF6B543C0
:103E00000E6906FA0CFC4CEA050CC4F820C00468E4
:103E10004FEA420C07FA0CF5AC430D7905F00305A7
:103E200005FA0CFC4CEA040CC0F800C0D1F804C040
:103E30001CF4403F1ED0D9F800C04CF4804CC9F8A7
:103E400000C0D9F800C00CF4804CCDF800C022F0BE
:103E5000030C0CF1804505F59835D5F808C8940792
:103E6000240F08FA04F62CEA0606704503D14FF039
:103E7000000C2FE067E0A0F1804CBCF5013C68D05D
:103E8000A0F1804CBCF5023C66D0A0F1804CBCF5A2
:103E9000033C64D0A0F1804CBCF5043C62D0A0F19E
:103EA000804CBCF5053C60D0A0F1804CBCF5063CD4
:103EB0005ED0A0F1804CBCF5073C5CD0A0F1804CFA
:103EC000BCF5083C5AD0A0F1804CBCF5093C58D058
:103ED0004FF00A0C0CFA04FC4CEA060CC5F808C8B2
:103EE000DAF800C02CEA030C4C6814F4803F01D0CF
:103EF0004CEA030CCAF800C0264CD4F800C02CEAE7
:103F0000030C4D6815F4003F01D04CEA030CC4F8D3
:103F100000C0214CD4F800C02CEA030C4D6815F405
:103F2000801F01D04CEA030CC4F800C01B4CD4F82D
:103F300000C02CEA030C4D6815F4001F01D04CEAB8
:103F4000030CC4F800C0521C102AFFF411AFBDE8E6
:103F5000F88F4FF0010CBDE74FF0020CBAE74FF0BD
:103F6000030CB7E74FF0040CB4E74FF0050CB1E7D2
:103F70004FF0060CAEE74FF0070CABE74FF0080C24
:103F8000A8E74FF0090CA5E74438024000000240C2
:103F9000003C0140043C0140083C01400C3C014015
:103FA000002A01D0816170470904816170470000D7
:103FB0000148806870470000280000100148006830
:103FC00070470000187AFF1F024881680278114488
:103FD000816070472800001010B50B48016841F45B
:103FE00000710160016841F480610160016841F481
:103FF00080710160032000F00DFB0F2000F006F837
:1040000000F09CFA002010BD003C024070B588B062
:1040100004460025002600222146372000F0C6FA7B
:10402000372000F0B5FA00BF002001901648006864
:1040300040F02000144908600846006800F02000A5
:10404000019000BF00BF02A903A800F047FD00F0E7
:1040500069FD45000D48B5FBF0F0461E0C480D49C2
:10406000086040F2E7310B48C16046600021016101
:10407000816001F0CAF820B9064801F063F908B080
:1040800070BD0120FBE700004038024040420F00B5
:1040900000140040742801202DE9F05F044694F8D4
:1040A000A000012833D0012584F8A050022084F814
:1040B000A10001F1080602EB820096E8C00F00EBB8
:1040C000C20004EB8003D1F804C00868C3F83CC008
:1040D0004033A3E8C00F583B9863D1F824C0D1F80F
:1040E0003080CF6A8E6A086AC3F85CC0C3F8688003
:1040F0005F661E669865204601F0CAFC206845622E
:1041000084F8A150002084F8A000BDE8F09F0220B0
:10411000BDE8F09F70472DE9F04104462068856BAB
:10412000466B15F0040F4FF004084FF0000716D04F
:1041300016F0040F13D0416B21F004014163206895
:10414000C0F83C80D4F8A40040F00100C4F8A400FA
:1041500084F8A18084F8A0702046FFF7DBFF15F0FB
:10416000020F17D016F0020F14D02068416B21F017
:104170000201416321680220C863D4F8A40040F022
:104180000200C4F8A40084F8A18084F8A07020463E
:10419000FFF7C0FF05EA060010F0010F4FF001081D
:1041A0000ED02068416B21F0010141632068C0F806
:1041B0003C8084F8A18084F8A070204600F09AF832
:1041C00015F0080F11D016F0080F0ED02068416BC3
:1041D00021F00801416321680820C86384F8A180A8
:1041E00084F8A070204600F0A7F9BDE8F081000037
:1041F00070B50446002C04D094F8A100002510B13D
:1042000006E0012070BD84F8A050204600F0B0F810
:10421000022084F8A1002068816921F07041816149
:10422000A168606822690843E1681143014320687E
:10423000826911438161206882682D490A40826049
:10424000A08A020420688368D4F818C043EA0C03EB
:104250001A4382602068C2680A40C260A08B0204D0
:104260002068C368D4F820C043EA0C031A43C26034
:10427000206802690A400261A08C02042068036978
:10428000D4F828C043EA0C031A430261206842694B
:1042900011404161A08D010420684269236B1A43DB
:1042A0001143416194F83500020294F8360001048C
:1042B0002068C36A03F07F43C3622068C36A94F82E
:1042C00034C0114343EA0C031943C1622068416BB7
:1042D00041F0060141632068816941F0010181617B
:1042E000C4F8A450012084F8A100002070BD000093
:1042F00000F800F070B505461948006819490988AA
:1043000088421AD118480188284600F0F1F800BF09
:104310001649086800BF90F86610491C80F86610BE
:1043200000BF05F029F900BF10480068044608F0F6
:10433000B5FD002009F030FE11E00A48018828464A
:1043400000F0D6F8002009F028FE00BF07480468F6
:1043500000BF2068016A2046884700BF00BF70BDCB
:1043600040680140140000101600001064000010A6
:1043700010B592B0044614210DA8FCF735FB30218E
:1043800001A8FCF731FB5449206888427ED10820FF
:104390000190A82005900221079100200A9001A811
:1043A00000F088F908B1FEF72FFB00BF0020009055
:1043B0004A48006840F08060484908600846006844
:1043C00000F08060009000BF00BF00BF00200090A0
:1043D00042481438006840F480704049143908603D
:1043E0000846006800F48070009000BF00BF00BF66
:1043F000002000900846006840F020000860084651
:10440000006800F02000009000BF00BF00BF002047
:1044100000900846006840F0800008600846006888
:1044200000F08000009000BF00BF00BF002000909F
:104430000846006840F0400008600846006800F048
:104440004000009000BF00BF40F2F7600D900220D6
:104450000E9000200F90032010900E2011900DA9B7
:104460001F48FFF777FC4FF480600D9002200E90FC
:1044700000200F90032010900E2011900DA91948D4
:10448000FFF768FC4FF47E400D9000E022E0022030
:104490000E9000200F90032010900E2011900DA977
:1044A0001148FFF757FC4FF40C600D9002200E905E
:1044B00000200F90032010900E2011900DA90B48A2
:1044C000FFF748FC00220921582000F06FF858201F
:1044D00000F05EF812B010BD0068014044380240A0
:1044E0000020024000140240001C0240001802405C
:1044F00090F8A020012A1AD0012380F8A0300222CF
:1045000080F8A1200268D2F834C02CF0010CC2F867
:1045100034C0084A116001684A6B42F001024A63E4
:1045200080F8A130002180F8A01000207047022000
:1045300070470000406801407047000008B500BFA8
:10454000002000901148006840F480400F49086046
:104550000846006800F48040009000BF00BF00BF24
:1045600000200090081F006840F08050091F08607C
:104570000846006800F08050009000BF00BF002295
:104580000F21901E00F012F808BD000044380240D0
:1045900000280ADB00F01F01012202FA01F14009A4
:1045A000800000F1E020C0F80011704710B4184BF3
:1045B0001B68C3F30223C3F1070CBCF1040F01D93C
:1045C0004FF0040C1C1D072C01D2002300E0DB1E61
:1045D000012404FA0CFCACF1010C0CEA0101994035
:1045E00004FA03F35B1E1A401143002806DB00F1B6
:1045F000E020090180F8001410BC704700F00F00A3
:1046000000F1E020090180F8141D10BC7047000083
:104610000CED00E000F00700064A11684FF6FF03BA
:10462000194041EA002040F0FD7040F080601060C9
:10463000704700000CED00E0F8B51B48016841F040
:1046400080510160006800F080500090174F0126F3
:104650003E64FFF7ADFC0546154C606810F4803FE2
:104660000BD1FFF7A5FC401BB0F57A7F01D90320E1
:10467000F8BD606810F4803FF3D07E64FFF798FCCB
:104680000546606810F4003F0BD1FFF791FC401B1A
:10469000B0F57A7F01D90320F8BD606810F4003FBF
:1046A000F3D00020F8BD00004038024000000E4268
:1046B000007000402DE9F84F0446DFF878A220781A
:1046C000DFF874929D4D10F0430F4FF001084FF04A
:1046D000000759D0CAF86870FFF76AFC06462868D8
:1046E00010F0006F0BD0FFF763FC801B022802D98B
:1046F0000320BDE8F88F286810F0006FF3D1207810
:104700008F4910F0010F05D06068227A800140EADD
:1047100002700860207810F0020F13D00868C0F310
:1047200002706268237B920142EA036242EA0070EF
:104730000860D9F80000E26920F01F00521E104303
:10474000C9F80000207810F0400F08D06068227B84
:10475000800140EA0260227A40EA02700860CAF8EA
:104760006880FFF725FC0646286810F0006F0BD123
:10477000FFF71EFC801B022802D90320BDE8F88F3A
:10478000286810F0006FF3D0207810F00C0F5AD08A
:10479000CAF87070FFF70CFC0646286810F0005F3E
:1047A0000BD0FFF705FC801B022802D90320BDE8CF
:1047B000F88F286810F0005FF3D12078614910F07D
:1047C000040F14D00868C0F302702269237D92019F
:1047D00042EA036242EA00700860D9F80000226AE7
:1047E00020F4F850521E40EA0220C9F80000207858
:1047F00010F0080F12D00868C0F30360226992011C
:1048000042EA0060227E40EA02700860D9F80000A7
:10481000616A20F440300843C9F80000CAF870808B
:10482000FFF7C6FB0646286810F0005F0BD1FFF7C4
:10483000BFFB801B022802D90320BDE8F88F28683F
:1048400010F0005FF3D0207810F0200F5CD03E48CD
:10485000016841F080510160006800F080500090D4
:104860003A4D286840F480702860FFF7A1FB0646A7
:10487000286810F4807F0BD1FFF79AFB801B022879
:1048800002D90320BDE8F88F286810F4807FF3D0A8
:104890002F4D286800F4407028B3218D01F4407139
:1048A000814220D0286820F440702A49C1F8008055
:1048B0000F602860286810F0010F14D0FFF778FB14
:1048C0000646286810F0020F0DD141F28837FFF735
:1048D0006FFB801BB84202D90320BDE8F88F28681F
:1048E00010F0020FF3D0A06A4FF4407131EA0002D9
:1048F000194914D0086820F4F81008602868218D40
:10490000C1F30B0108432860207810F0100F03D08A
:10491000124994F82C0008600020BDE8F88F0A685E
:1049200020F4407022F4F81220F070401043086028
:10493000E4E70000000047428C38024000380240A3
:1049400084380240883802404038024000700040FD
:1049500070380240400E474208380240E01147429A
:104960002DE9F04704460D46002C13D0DFF8549192
:10497000D9F80000EFB200F00F00A8420DD289F87C
:104980000070D9F8000000F00F00A84205D0012007
:10499000BDE8F0870120BDE8F08720684A4E10F09E
:1049A000020F14D010F0040F03D0306840F4E05030
:1049B0003060207810F0080F03D0306840F4604079
:1049C00030603068A16820F0F00008433060207843
:1049D00010F0010F3ED060683C49012808D0022841
:1049E0000DD003280BD0096811F0020F28D00AE07F
:1049F000096811F4003F06D10120BDE8F08709687D
:104A000011F0007F19D0316821F0030108433060B4
:104A1000FFF7CEFA80463068616800F00C00B0EB1A
:104A2000810F17D041F2883AFFF7C2FAA0EB0800D5
:104A3000504508D90320BDE8F0870120BDE8F08784
:104A40000120BDE8F0873068616800F00C00B0EB31
:104A5000810FE9D1D9F8000000F00F00A8420AD96F
:104A600089F80070D9F8000000F00F00A84202D0C9
:104A70000120BDE8F087207810F0040F05D03068E1
:104A8000E16820F4E05008433060207810F0080F0F
:104A900006D03068216920F4604040EAC1003060EF
:104AA00000F060F831680A4AC1F30311515CC84054
:104AB0000849086008480068FFF7A8FA0020BDE828
:104AC000F0870000003C02400838024000380240F5
:104AD0001C6F0108A00000202C0000100F220260B3
:104AE0000B4A136803F003034360136803F0F003F9
:104AF0008360136803F4E053C360126802F46042F9
:104B0000D20802610348006800F00F000860704797
:104B100008380240003C024001480068704700002D
:104B2000A000002000B5FFF7F7FF04490968044A18
:104B3000C1F38221515CC84000BD0000083802402A
:104B40002C6F010800B5FFF7E7FF04490968044A24
:104B5000C1F34231515CC84000BD0000083802403A
:104B60002C6F010810B51748006810F00C011648AA
:104B700016D0164B042912D0082911D1144C2168E3
:104B800001F03F02216811F4800F0AD02068C0F3C1
:104B90008810A0FB03010023FBF764FC09E0184622
:104BA00010BD21680023C1F38811A1FB0001FBF7B0
:104BB00059FC2168C1F30141491C4900B0FBF1F0E7
:104BC00010BD0000083802400024F40040787D0148
:104BD000043802402DE9F84F0446002C12D020780A
:104BE000FB4E10F0010FA6F1040563D0301D0168E3
:104BF00001F00C0104290CD0006800F00C0008281A
:104C000003D010E00120BDE8F88F306810F4800F69
:104C100009D0286810F4003F4CD06068002849D1C2
:104C20000120BDE8F88F6068B0F5803F14D0B0F582
:104C3000A02F16D0286820F480302860286820F43F
:104C400080202860606810B3FFF7B2F90746286833
:104C500010F4003F0ED02DE0286840F4803028602A
:104C6000F0E7286840F480202860286840F480300D
:104C70002860E7E7FFF79CF9C01B642802D90320EE
:104C8000BDE8F88F286810F4003FF3D012E0FFF77A
:104C90008FF90746286810F4003F0BD0FFF788F91A
:104CA000C01B642802D90320BDE8F88F286810F4DF
:104CB000003FF3D12078C74F10F0020F4FF00009EA
:104CC00057D0C548016811F00C0F14D0006800F0EF
:104CD0000C00082803D1306810F4800F0BD0E06876
:104CE00080B301203860FFF763F98046286810F030
:104CF000020F12D01EE0286810F0020F05D0E06805
:104D0000012802D00120BDE8F88F2868216920F031
:104D1000F80040EAC10028602BE0FFF749F9A0EB5A
:104D20000800022802D90320BDE8F88F286810F097
:104D3000020FF2D02868216920F0F80040EAC10093
:104D4000286016E0FFE7C7F80090FFF731F98046CA
:104D5000286810F0020F0CD0FFF72AF9A0EB08002A
:104D6000022802D90320BDE8F88F286810F0020F4E
:104D7000F2D1207810F0080F35D09848DFF860A203
:104D80006169C1B101210160FFF712F98046DAF8CB
:104D9000000010F0020F26D1FFF70AF9A0EB08007F
:104DA000022802D90320BDE8F88FDAF8000010F0DD
:104DB000020FF1D017E0C0F80090FFF7F9F8804635
:104DC000DAF8000010F0020F0DD0FFF7F1F8A0EBB9
:104DD0000800022802D90320BDE8F88FDAF80000A5
:104DE00010F0020FF1D1207810F0040F71D04FF0C5
:104DF00000087C48006810F0805F0AD1794801689B
:104E000041F080510160006800F0805000904FF048
:104E10000108DFF8D4B1DBF8000010F4807F1BD16B
:104E2000DBF8000040F48070CBF80000FFF7C0F81A
:104E30008246DBF8000010F4807F0DD1FFF7B8F850
:104E4000A0EB0A00022802D90320BDE8F88FDBF8A6
:104E5000000010F4807FF1D0A068DFF890B1012845
:104E600018D005281DD0DBF8000020F00100CBF899
:104E70000000DBF8000020F00400CBF80000A06880
:104E800040B3FFF795F88246DBF8000010F0020F00
:104E900014D03EE0DBF8000040F00100CBF8000049
:104EA000EDE7DBF8000040F00400CBF80000DBF891
:104EB000000040F00100CBF80000E0E7FFF778F8D1
:104EC000A0EB0A0141F28830814204D90320BDE8F9
:104ED000F88F26E005E0DBF8000010F0020FEDD0BF
:104EE00017E0FFF765F88246DBF8000010F0020FCC
:104EF0000FD0FFF75DF8A0EB0A0141F28830814244
:104F000002D90320BDE8F88FDBF8000010F0020F93
:104F1000EFD1B8F1010F04D13248016821F080517E
:104F20000160A069F0B32C4909684FF0FF3801F027
:104F30000C01082966D0022810D0C7F86090FFF74E
:104F400037F80446286810F0007F2BD0FFF730F8C0
:104F5000001B022851D90320BDE8F88FC7F86090E4
:104F6000FFF726F88146286810F0007F0CD0FFF785
:104F70001FF8A0EB0900022802D90320BDE8F88F32
:104F8000286810F0007FF2D1216AE069A26A084324
:104F9000616A08EB5202890141EA0241084394F830
:104FA0002C1000E055E040EA0160306001203866D6
:104FB000FEF7FEFF0446286810F0007F49D1FEF797
:104FC000F7FF001B022813D90320BDE8F88F00006B
:104FD000043802400000474208380240800E474231
:104FE000743802404038024000700040703802407F
:104FF000286810F0007FE2D02BE0286810F0007FD6
:10500000A4D126E0012822D03068E26900F48001B2
:1050100091421AD1226A00F03F01914215D147F620
:10502000C071626A0140B1EB821F0ED1A26A00F426
:10503000403108EB5202B1EB024F06D194F82C102C
:1050400000F07060B0EB016F03D00120BDE70120DC
:10505000BBE70020B9E770B50446002C03D06079A7
:10506000002510B105E0012070BD2571204600F03B
:105070000DF8022060712068016841F004010160B0
:1050800001206071A560002070BD000008B50A4ACB
:10509000016891420FD100BF0021009107490968C2
:1050A00041F04001054A11601146096801F04001D4
:1050B000009100BF00BF08BD000806503438024010
:1050C00070B504460D46002C03D094F82C0010B1A6
:1050D00007E0012070BD002084F82D00204600F07C
:1050E00011F8022084F82C00211D2068FDF7B4FC83
:1050F000294662682068FDF70CFD012084F82C0029
:10510000002070BD10B50446FEF7ACFD10BD10B513
:10511000044694F82C0002280AD0022084F82C00BF
:105120002068FDF7C8FC012084F82C00002010BD89
:10513000022010BD70B504460D4694F82C000228DC
:105140000ED0022084F82C0029462068FDF7B9FC17
:105150002868022806D0012084F82C00002070BDA9
:10516000022070BD052084F82C00F7E770477047D7
:1051700030B490F83C20012A44D0012480F83C400F
:10518000022280F83D200268D2F804C093682CF017
:10519000700C0D6845EA0C0CC2F804C00268A2F15C
:1051A000804CBCF5803C20D0B2F1804F1DD0A2F1E4
:1051B000804CBCF5806C18D0A2F1804CBCF5006C22
:1051C00013D0A2F1804CBCF5406C0ED0A2F1804C03
:1051D000BCF5823C09D0A2F1804CBCF5A03C04D0C7
:1051E000A2F1804CBCF5C05C04D123F08003496877
:1051F0001943916080F83D40002180F83C1030BC9C
:105200000020704730BC0220704710B50446002CC7
:1052100003D094F83D0010B107E0012010BD00203C
:1052200084F83C00204600F01FF8022084F83D007E
:10523000211D206801F0F8FD012084F8460084F863
:105240003E0084F83F0084F8400084F8410084F870
:10525000420084F8430084F8440084F8450084F850
:105260003D00002010BD000008B50168B1F1804F7D
:105270000FD100BF002100911049096841F00101E0
:105280000E4A11601146096801F00101009100BF4A
:1052900013E00B4A016891420FD100BF0021009139
:1052A0000649096841F00201044A11601146096883
:1052B00001F00201009100BF00BF08BD403802406C
:1052C0000004004090F83D10012901D001207047F2
:1052D000022180F83D100068A0F18041B1F58031D5
:1052E00026D0B0F1804F23D0A0F18041B1F580618C
:1052F0001ED0A0F18041B1F5006119D0A0F180412C
:10530000B1F5406114D0A0F18041B1F582310FD0E8
:10531000A0F18041B1F5A0310AD0A0F18041B1F5F2
:10532000C05105D0016841F00101016000207047C3
:10533000816801F007010629F8D0016841F00101F8
:105340000160F3E790F83D10012901D0012070477A
:10535000022180F83D100168CA6842F00102CA606B
:105360000068A0F18041B1F5803126D0B0F1804FC6
:1053700023D0A0F18041B1F580611ED0A0F1804121
:10538000B1F5006119D0A0F18041B1F5406114D0B0
:10539000A0F18041B1F582310FD0A0F18041B1F58B
:1053A000A0310AD0A0F18041B1F5C05105D001680B
:1053B00041F00101016000207047816801F00701A0
:1053C0000629F8D0016841F001010160F3E770B5EA
:1053D0000446002594F83C00012818D0012684F8E2
:1053E0003C60022084F83D002068826822F0770249
:1053F00022F47F4282600868502839D00EDC2028D1
:1054000054D006DC002851D0102811D14EE00220E3
:1054100070BD30284AD040280AD13DE0602831D004
:1054200070280DD0B0F5805F03D0B0F5005F13D0C9
:10543000012584F83D60002084F83C00284670BDBA
:10544000CB684A688968206801F063FD206881683C
:1054500041F077018160ECE7CB684A688968206891
:1054600001F057FD2068816841F480418160E0E7E8
:10547000CA684968206801F03BFE5021206801F0AD
:1054800053FDD6E7CA684968206801F044FE6021F0
:10549000206801F049FDCCE7CA684968206801F03E
:1054A00027FE4021206801F03FFDC2E72268014647
:1054B000104601F039FDBCE7704770B5044620681E
:1054C00001694FF0000511F0020F17D0C16811F00B
:1054D000020F13D0E91E0161012020772068806946
:1054E00010F0030F03D02046FFF7E6FF05E020464B
:1054F00000F0CEF8204600F067F9257720680169B2
:1055000011F0040F18D0C16811F0040F14D06FF01F
:1055100004010161022020772068806910F4407F37
:1055200003D02046FFF7C8FF05E0204600F0B0F8A2
:10553000204600F049F925772068016911F0080F2D
:1055400018D0C16811F0080F14D06FF00801016184
:10555000042020772068C06910F0030F03D0204694
:10556000FFF7AAFF05E0204600F092F8204600F081
:105570002BF925772068016911F0100F18D0C16848
:1055800011F0100F14D06FF0100101610820207786
:105590002068C06910F4407F03D02046FFF78CFFDD
:1055A00005E0204600F074F8204600F00DF925775C
:1055B0002068016911F0010F09D0C16811F0010FD5
:1055C00005D06FF001010161204600F06DF92068FF
:1055D000016911F0800F09D0C16811F0800F05D06A
:1055E0006FF0800101612046FFF7C0FD206801696E
:1055F00011F0400F09D0C16811F0400F05D06FF0D5
:1056000040010161204600F05BF92068016911F05A
:10561000200F0BD0C16811F0200F07D06FF02001D0
:1056200001612046BDE87040FFF7A1BD70BD0000DC
:1056300010B586B00446142101A8FBF7D5F911492D
:10564000206888421CD100BF002000900E480068EE
:1056500040F001000C4908600846006800F00100B5
:10566000009000BF00BF4020019002200290002067
:10567000039004900220059001A90448FEF76AFBFC
:1056800006B010BD00040040303802400000024067
:10569000704770B504460D46002694F83C0001287A
:1056A0000FD0012084F83C006AB1042A1FD0082AD8
:1056B00032D00C2A44D00126002084F83C00304629
:1056C00070BD022070BD2946206801F035FC2068BD
:1056D000816941F0080181612068816921F004013C
:1056E0008161206881692A6911438161E4E7294663
:1056F000206801F059FC2068816941F400618161F2
:105700002068816921F480618161206881692A694A
:1057100041EA02218161CFE72946206801F080FC3F
:105720002068C16941F00801C1612068C16921F0A8
:105730000401C1612068C1692A691143C161BBE7E5
:105740002946206801F0A8FC2068C16941F4006185
:10575000C1612068C16921F48061C1612068C169AB
:105760002A6941EA0221C161A6E710B50446002C6E
:1057700003D094F83D0010B107E0012010BD0020D7
:1057800084F83C00204600F01EF8022084F83D001A
:10579000211D206801F048FB012084F8460084F8B0
:1057A0003E0084F83F0084F8400084F8410084F80B
:1057B000420084F8430084F8440084F8450084F8EB
:1057C0003D00002010BD70477047000010B5044632
:1057D000002909D004290AD008290BD094F84100E7
:1057E00001280AD0012010BD94F83E00F8E794F893
:1057F0003F00F5E794F84000F2E70220D9B304290E
:1058000047D0082948D084F841000122206801F0DF
:1058100071FB234A20682349904201D0884203D17A
:10582000436C43F4004343642068904224D0B0F1B9
:10583000804F21D0A0F18042B2F580621CD0A0F14F
:105840008042B2F5006217D0A0F18042B2F540620A
:1058500012D0884210D0A0F18041B1F5A0310BD018
:10586000A0F18041B1F5C05106D0016841F00101BD
:105870000160002010BD09E0816801F007010629E0
:10588000F7D0016841F001010160F2E784F83E00C1
:10589000BBE784F83F00B8E784F84000B5E70000B4
:1058A000000001400004014010B50446034920688F
:1058B000884201D1FEF788FB10BD000000140040B3
:1058C000704770B50446002C04D094F83D000025C4
:1058D00010B106E0012070BD84F83C50204600F075
:1058E00023F8242084F83D002068C16821F4005189
:1058F000C160204601F026FC2068016921F4904136
:1059000001612068416921F02A0141612068C16874
:1059100041F40051C1602564202084F83D0084F8E2
:105920003E00002070BD000010B586B00446142172
:1059300001A8FBF759F81B492068884230D100BF05
:10594000002000901848006840F0100016490860D8
:105950000846006800F01000009000BF00BF00BFC4
:105960000020009010481438006840F001000E49F3
:10597000143908600846006800F00100009000BF7C
:1059800000BF4FF4C06001900220029000200390FD
:10599000032004900720059001A90448FEF7DAF9D6
:1059A00006B010BD00100140443802400000024023
:1059B0002DE9F84304460E4615461F4694F83D006F
:1059C000202802D00220BDE8F883C6B1BDB194F80A
:1059D0003C00012816D0012084F83C004FF000095B
:1059E000C4F84090212084F83D00FEF7E1FA80469B
:1059F000A584E584A068B0F5805F06D007E00120AB
:105A0000BDE8F8830220BDE8F883206980B13546FF
:105A1000002684F83C90E08CB8B1434600228021F7
:105A20002046009701F00CFC20B10320BDE8F8836C
:105A30000025EEE7A5B12168287848606D1CE08C50
:105A4000401EE084E08C0028E7D14346002240213C
:105A50002046009701F0F4FB48B10320BDE8F8832D
:105A600030882168C0F308004860B61CE7E72020B2
:105A700084F83D000020BDE8F88300BFFEE7000089
:105A800010B50248FEF747FB10BD0000302600208D
:105A9000F0B40368B1F804C0DC68C4F30B44A44458
:105AA0004FEA0C444FF0880C0CEBC21C53F80C501E
:105AB00005F4704543F80C5003680D68DE68C6F3C2
:105AC0000B46761C35442C4343F80C400368B1F870
:105AD0000CC0DC68C4F30A04A4444FEA0C444FF041
